{
  "contractName": "Damble",
  "abi": [
    {
      "constant": true,
      "inputs": [
        {
          "name": "",
          "type": "uint256"
        }
      ],
      "name": "userAddresses",
      "outputs": [
        {
          "name": "",
          "type": "address"
        }
      ],
      "payable": false,
      "stateMutability": "view",
      "type": "function"
    },
    {
      "constant": true,
      "inputs": [
        {
          "name": "",
          "type": "address"
        }
      ],
      "name": "users",
      "outputs": [
        {
          "name": "",
          "type": "uint256"
        }
      ],
      "payable": false,
      "stateMutability": "view",
      "type": "function"
    },
    {
      "constant": true,
      "inputs": [
        {
          "name": "",
          "type": "uint256"
        }
      ],
      "name": "partAmounts",
      "outputs": [
        {
          "name": "",
          "type": "uint256"
        }
      ],
      "payable": false,
      "stateMutability": "view",
      "type": "function"
    },
    {
      "inputs": [],
      "payable": false,
      "stateMutability": "nonpayable",
      "type": "constructor"
    },
    {
      "anonymous": false,
      "inputs": [
        {
          "indexed": false,
          "name": "userAddress",
          "type": "address"
        },
        {
          "indexed": false,
          "name": "amount",
          "type": "uint256"
        }
      ],
      "name": "NewUser",
      "type": "event"
    },
    {
      "anonymous": false,
      "inputs": [
        {
          "indexed": false,
          "name": "winner",
          "type": "address"
        }
      ],
      "name": "WinnerPicked",
      "type": "event"
    },
    {
      "constant": false,
      "inputs": [],
      "name": "placeBet",
      "outputs": [],
      "payable": true,
      "stateMutability": "payable",
      "type": "function"
    },
    {
      "constant": true,
      "inputs": [],
      "name": "getPartAmounts",
      "outputs": [
        {
          "name": "",
          "type": "uint256[]"
        }
      ],
      "payable": false,
      "stateMutability": "view",
      "type": "function"
    },
    {
      "constant": true,
      "inputs": [
        {
          "name": "user",
          "type": "address"
        }
      ],
      "name": "getUserBalance",
      "outputs": [
        {
          "name": "",
          "type": "address"
        },
        {
          "name": "",
          "type": "uint256"
        }
      ],
      "payable": false,
      "stateMutability": "view",
      "type": "function"
    },
    {
      "constant": true,
      "inputs": [],
      "name": "accountAmount",
      "outputs": [
        {
          "name": "",
          "type": "uint256"
        }
      ],
      "payable": false,
      "stateMutability": "view",
      "type": "function"
    },
    {
      "constant": false,
      "inputs": [
        {
          "name": "randomNumber",
          "type": "uint256"
        }
      ],
      "name": "endRaffle",
      "outputs": [],
      "payable": false,
      "stateMutability": "nonpayable",
      "type": "function"
    },
    {
      "constant": true,
      "inputs": [],
      "name": "getContractBalance",
      "outputs": [
        {
          "name": "",
          "type": "uint256"
        }
      ],
      "payable": false,
      "stateMutability": "view",
      "type": "function"
    }
  ],
  "bytecode": "0x6080604052670de0b6b3a764000060065534801561001c57600080fd5b5033600460006101000a81548173ffffffffffffffffffffffffffffffffffffffff021916908373ffffffffffffffffffffffffffffffffffffffff16021790555060058081905550600180600066038d7ea4c68000815260200190815260200160002060006101000a81548160ff0219169083151502179055506001806000662386f26fc10000815260200190815260200160002060006101000a81548160ff021916908315150217905550600180600067016345785d8a0000815260200190815260200160002060006101000a81548160ff02191690831515021790555060018060006703782dace9d90000815260200190815260200160002060006101000a81548160ff02191690831515021790555060018060006706f05b59d3b20000815260200190815260200160002060006101000a81548160ff0219169083151502179055506001806000670de0b6b3a7640000815260200190815260200160002060006101000a81548160ff021916908315150217905550610f9e806101a46000396000f300608060405260043610610099576000357c0100000000000000000000000000000000000000000000000000000000900463ffffffff168063417487821461009e57806347734892146100c9578063502c9bd5146101535780636f9fb98a146101c057806391125c58146101eb5780639def429d14610257578063a87430ba14610284578063c3d803f1146102db578063f90f45601461031c575b600080fd5b3480156100aa57600080fd5b506100b3610326565b6040518082815260200191505060405180910390f35b3480156100d557600080fd5b5061010a600480360381019080803573ffffffffffffffffffffffffffffffffffffffff1690602001909291905050506103de565b604051808373ffffffffffffffffffffffffffffffffffffffff1673ffffffffffffffffffffffffffffffffffffffff1681526020018281526020019250505060405180910390f35b34801561015f57600080fd5b5061017e6004803603810190808035906020019092919050505061042a565b604051808273ffffffffffffffffffffffffffffffffffffffff1673ffffffffffffffffffffffffffffffffffffffff16815260200191505060405180910390f35b3480156101cc57600080fd5b506101d5610468565b6040518082815260200191505060405180910390f35b3480156101f757600080fd5b50610200610487565b6040518080602001828103825283818151815260200191508051906020019060200280838360005b83811015610243578082015181840152602081019050610228565b505050509050019250505060405180910390f35b34801561026357600080fd5b50610282600480360381019080803590602001909291905050506104df565b005b34801561029057600080fd5b506102c5600480360381019080803573ffffffffffffffffffffffffffffffffffffffff16906020019092919050505061069f565b6040518082815260200191505060405180910390f35b3480156102e757600080fd5b50610306600480360381019080803590602001909291905050506106b7565b6040518082815260200191505060405180910390f35b6103246106da565b005b6000806000809150600090505b6002805490508110156103d657600080600060028481548110151561035457fe5b9060005260206000200160009054906101000a900473ffffffffffffffffffffffffffffffffffffffff1673ffffffffffffffffffffffffffffffffffffffff1673ffffffffffffffffffffffffffffffffffffffff1681526020019081526020016000205411156103c95781806001019250505b8080600101915050610333565b819250505090565b600080826000808573ffffffffffffffffffffffffffffffffffffffff1673ffffffffffffffffffffffffffffffffffffffff1681526020019081526020016000205491509150915091565b60028181548110151561043957fe5b906000526020600020016000915054906101000a900473ffffffffffffffffffffffffffffffffffffffff1681565b60003073ffffffffffffffffffffffffffffffffffffffff1631905090565b606060038054806020026020016040519081016040528092919081815260200182805480156104d557602002820191906000526020600020905b8154815260200190600101908083116104c1575b5050505050905090565b600080600460009054906101000a900473ffffffffffffffffffffffffffffffffffffffff1673ffffffffffffffffffffffffffffffffffffffff163373ffffffffffffffffffffffffffffffffffffffff1614151561053e57600080fd5b6001610548610326565b11151561055457600080fd5b61055d836108cb565b9150600073ffffffffffffffffffffffffffffffffffffffff168273ffffffffffffffffffffffffffffffffffffffff1614156105a15761059c610ae2565b610692565b606460623073ffffffffffffffffffffffffffffffffffffffff1631028115156105c757fe5b0490508173ffffffffffffffffffffffffffffffffffffffff166108fc829081150290604051600060405180830381858888f19350505050158015610610573d6000803e3d6000fd5b50600460009054906101000a900473ffffffffffffffffffffffffffffffffffffffff1673ffffffffffffffffffffffffffffffffffffffff166108fc3073ffffffffffffffffffffffffffffffffffffffff16319081150290604051600060405180830381858888f19350505050158015610690573d6000803e3d6000fd5b505b61069a610c79565b505050565b60006020528060005260406000206000915090505481565b6003818154811015156106c657fe5b906000526020600020016000915090505481565b60065434111580156106ec5750600034115b15156106f757600080fd5b6001600034815260200190815260200160002060009054906101000a900460ff16151561072357600080fd5b600561072d610326565b10151561073957600080fd5b60008060003373ffffffffffffffffffffffffffffffffffffffff1673ffffffffffffffffffffffffffffffffffffffff16815260200190815260200160002054111561078957610788610d72565b5b60023390806001815401808255809150509060018203906000526020600020016000909192909190916101000a81548173ffffffffffffffffffffffffffffffffffffffff021916908373ffffffffffffffffffffffffffffffffffffffff160217905550506003349080600181540180825580915050906001820390600052602060002001600090919290919091505550346000803373ffffffffffffffffffffffffffffffffffffffff1673ffffffffffffffffffffffffffffffffffffffff168152602001908152602001600020819055507fd75b88a9203b17f9356ca063241beac16a25d5a46f485b378c2c229e864bdd4d3334604051808373ffffffffffffffffffffffffffffffffffffffff1673ffffffffffffffffffffffffffffffffffffffff1681526020018281526020019250505060405180910390a1565b600080600060019150600090505b600280549050811015610ada5781841015801561096f57508160008060028481548110151561090457fe5b9060005260206000200160009054906101000a900473ffffffffffffffffffffffffffffffffffffffff1673ffffffffffffffffffffffffffffffffffffffff1673ffffffffffffffffffffffffffffffffffffffff16815260200190815260200160002054018411155b15610a51577f5b690ec4a06fe979403046eaeea5b3ce38524683c3001f662c8b5a829632f7df6002828154811015156109a457fe5b9060005260206000200160009054906101000a900473ffffffffffffffffffffffffffffffffffffffff16604051808273ffffffffffffffffffffffffffffffffffffffff1673ffffffffffffffffffffffffffffffffffffffff16815260200191505060405180910390a1600281815481101515610a1f57fe5b9060005260206000200160009054906101000a900473ffffffffffffffffffffffffffffffffffffffff169250610adb565b600080600283815481101515610a6357fe5b9060005260206000200160009054906101000a900473ffffffffffffffffffffffffffffffffffffffff1673ffffffffffffffffffffffffffffffffffffffff1673ffffffffffffffffffffffffffffffffffffffff168152602001908152602001600020548201915080806001019150506108d9565b5b5050919050565b60008090505b600280549050811015610c7657600281815481101515610b0457fe5b9060005260206000200160009054906101000a900473ffffffffffffffffffffffffffffffffffffffff1673ffffffffffffffffffffffffffffffffffffffff166108fc600080600285815481101515610b5a57fe5b9060005260206000200160009054906101000a900473ffffffffffffffffffffffffffffffffffffffff1673ffffffffffffffffffffffffffffffffffffffff1673ffffffffffffffffffffffffffffffffffffffff168152602001908152602001600020549081150290604051600060405180830381858888f19350505050158015610beb573d6000803e3d6000fd5b506000806000600284815481101515610c0057fe5b9060005260206000200160009054906101000a900473ffffffffffffffffffffffffffffffffffffffff1673ffffffffffffffffffffffffffffffffffffffff1673ffffffffffffffffffffffffffffffffffffffff168152602001908152602001600020819055508080600101915050610ae8565b50565b60008090505b600280549050811015610d6f576000806000600284815481101515610ca057fe5b9060005260206000200160009054906101000a900473ffffffffffffffffffffffffffffffffffffffff1673ffffffffffffffffffffffffffffffffffffffff1673ffffffffffffffffffffffffffffffffffffffff16815260200190815260200160002081905550600281815481101515610d1857fe5b9060005260206000200160006101000a81549073ffffffffffffffffffffffffffffffffffffffff0219169055600381815481101515610d5457fe5b90600052602060002001600090558080600101915050610c7f565b50565b6000806000803373ffffffffffffffffffffffffffffffffffffffff1673ffffffffffffffffffffffffffffffffffffffff16815260200190815260200160002054111515610dc057600080fd5b600090505b600280549050811015610ea6573373ffffffffffffffffffffffffffffffffffffffff16600282815481101515610df857fe5b9060005260206000200160009054906101000a900473ffffffffffffffffffffffffffffffffffffffff1673ffffffffffffffffffffffffffffffffffffffff161415610e9957600281815481101515610e4e57fe5b9060005260206000200160006101000a81549073ffffffffffffffffffffffffffffffffffffffff0219169055600381815481101515610e8a57fe5b90600052602060002001600090555b8080600101915050610dc5565b3373ffffffffffffffffffffffffffffffffffffffff166108fc6000803373ffffffffffffffffffffffffffffffffffffffff1673ffffffffffffffffffffffffffffffffffffffff168152602001908152602001600020549081150290604051600060405180830381858888f19350505050158015610f2a573d6000803e3d6000fd5b5060008060003373ffffffffffffffffffffffffffffffffffffffff1673ffffffffffffffffffffffffffffffffffffffff16815260200190815260200160002081905550505600a165627a7a7230582009325a1ef31a6539173ca50ea8568e7b96771eb23d3d6265d812c087a682dae50029",
  "source": "pragma solidity ^0.4.22;\n\ncontract Damble {\n\n    mapping(address => uint) public users;\n    mapping(uint => bool) private allowedValues;\n    address[] public userAddresses;\n    uint[] public partAmounts;\n    address owner;\n\n    uint maxUsers;\n    uint maxValue = 1 ether;\n\n    constructor() public {\n        owner = msg.sender;\n        maxUsers = 5;\n\n        // these are the only allowed values in this lobby, if the value is something else the user has been playing around with the code\n        allowedValues[(1 ether / 1000)] = true;\n        allowedValues[(1 ether / 100)] = true;\n        allowedValues[(1 ether / 10)] = true;\n        allowedValues[(1 ether / 4)] = true;\n        allowedValues[(1 ether / 2)] = true;\n        allowedValues[(1 ether)] = true;\n    }\n\n    event NewUser(\n        address userAddress,\n        uint amount\n    );\n\n    event WinnerPicked(\n        address winner\n    );\n\n    function placeBet() public payable{\n        require(msg.value <= maxValue && msg.value > 0);\n        require(allowedValues[msg.value]);\n        require(accountAmount() < 5);\n\n        if (users[msg.sender] > 0) {\n            userPullout(); //Remove senders data\n        }\n\n        // Push senders data again.\n        userAddresses.push(msg.sender);\n        partAmounts.push(msg.value);\n        users[msg.sender] = msg.value;\n        emit NewUser(msg.sender, msg.value);\n    }\n\n    function getPartAmounts() view public returns(uint[]){\n        return partAmounts;\n    }\n\n    function getUserBalance(address user) view public returns(address, uint){\n        return(user, users[user]);\n    }\n\n    function accountAmount() view public returns(uint) {\n        uint arrLen = 0;\n        for (uint i = 0; i < userAddresses.length; i++) {\n            if (users[userAddresses[i]] > 0){\n                arrLen++;\n            }\n        }\n        return arrLen;\n    }\n\n    function userPullout() private {\n        require(users[msg.sender] > 0);\n        for (uint i = 0; i < userAddresses.length; i++) {\n            if (userAddresses[i] == msg.sender){\n                delete userAddresses[i];\n                delete partAmounts[i];\n            }\n        }\n\n        msg.sender.transfer(users[msg.sender]);\n        users[msg.sender] = 0;\n    }\n\n\n    function pickWinner(uint randomNumber) view private returns(address){\n        uint lastMax = 1;\n\n        for (uint i = 0; i < userAddresses.length; i++) {\n            if (randomNumber >= lastMax && randomNumber <= (users[userAddresses[i]] + lastMax)){\n                emit WinnerPicked(userAddresses[i]);\n                return (userAddresses[i]);\n            }\n            lastMax +=  users[userAddresses[i]];\n        }\n    }\n\n    function endRaffle(uint randomNumber) public{\n        require(msg.sender == owner);\n        require(accountAmount() > 1);\n\n        address winner = pickWinner(randomNumber);\n        if (winner == address(0)){\n            onNoAddress();\n        } else {\n            uint winnings = (address(this).balance * 98) / 100;\n\n            winner.transfer(winnings);\n            owner.transfer(address(this).balance);\n        }\n        clearParticipants();\n    }\n\n    function getContractBalance() public view returns(uint){\n        return address(this).balance;\n    }\n\n    function clearParticipants() private {\n        for (uint i = 0; i < userAddresses.length; i++) {\n            users[userAddresses[i]] = 0;\n            delete userAddresses[i];\n            delete partAmounts[i];\n        }\n    }\n\n    function onNoAddress() private{\n        for (uint i = 0; i < userAddresses.length; i++) {\n            userAddresses[i].transfer(users[userAddresses[i]]);\n            users[userAddresses[i]] = 0;\n        }\n    }\n}\n",
  "sourcePath": "/Users/jasperdegooijer/Documents/damble/damble_contract/contracts/Damble.sol",
  "compiler": {
    "name": "solc",
    "version": "0.4.23+commit.124ca40d.Emscripten.clang"
  },
  "schemaVersion": "2.0.0",
  "updatedAt": "2018-05-27T12:02:47.969Z"
}